000001DUPONT         JEAN           002500003000000000001850175001
000002MARTIN         MARIE          003200004500000000002880678002
000003DURAND         PIERRE         002800002000000000001750875003
000004BERNARD        SOPHIE         003500005000000000002890180004
000005PETIT          PAUL           002200001500000000001650972005
